:200000000C941E1C0C944F1C0C944F1C0C944F1C0C944F1C0C944F1C0C944F1C0C944F1CB9
:200020000C944F1C0C944F1C0C944F1C0C944F1C0C944F1C0C944F1C0C944F1C0C944F1C68
:200040000C944F1C0C944F1C0C944F1C0C944F1C0C948F1D0C944F1C0C944F1C0C945C31E5
:200060000C944F1C0C944F1C0C944F1C0C944F1C0C944F1C0C944F1C0C944F1C0C944F1C28
:200080000C944F1C0C944F1C0C944F1C0C944F1C0C944F1C0C944F1C0C944F1C0C94B81D9E
:2000A0000C944F1C0C944F1C0C944F1C0C944F1C0C944F1C0C944F1C0C944F1C0C944F1CE8
:2000C0000C944F1C0C944F1C0C944F1C0C944F1C0C944F1C0C944F1C0C944F1C0C944F1CC8
:2000E0000C944F1CB030B330A230A630AA30EA30B730BB30C130C530C930CF30D330D730DC
:20010000EA30DD30E130E5307F7F7F7F7F2388138813881388138813881388138813887F15
:200120007F7F7F7F7F7F338813881388138813881388138813881388447F70882990239407
:2001400020971C9A1A9C189E16A0148E078B138C0B8A118B0F88118A11880F8A13880E8976
:2001600014880D8916870D8917870C8818870C8818870B8919870A881A870A881A870A88EA
:200180001A870A881A870A881A870A881A8809881A8809881A8809881A88098918890A88C6
:2001A00018890A8818890A89168A0A89168A0B89148B0B8A128C0C8A108D0C8C0C8F0D8E9E
:2001C00007910E9D00880F9B018810990288119703881295048813920687168E0887198882
:2001E0000A882D882D882D882D872D88108417880C8817880C8915880D8915880E881489E7
:200200000E8913880F89128910891089118A0E8A118B0B8B138C078C159F169E189C1A9AE0
:200220001D971F9423902889507F7089289122951E991B9B199D179F15A1138D078C138B5B
:200240000B8B118A0F8A10891189108813880F8913890E8815880E8815880E8815880E880B
:2002600015880E8815880E8815880E8815880F881388108813881089118911890F891389E2
:200280000D89158B078C169D199B1C97209320961D9A1A9D179F158C078C138A0C8B118AEB
:2002A0000F8A0F8A11890F8913890D8915880D8915890C8817880C8817880B8819880A88AB
:2002C00019880A8819880A8819880A8819880A8819880A8819880A8819880A8819880A8985
:2002E00017890B8817880C8915890C8915890D8913890E8A118A0F8A0F8A108C0C8B118D5E
:20030000078D13A1159F179D199B1B991E95229128894E7F7F17AB0AAB0AAB0AAB0AAB0AC2
:20032000AB0AAB0AAB0AAA2E862E862E872D872D872D872E872D872D872E872D872D882D53
:20034000872D872D882D872D882D872D882C882D882C882D882C882D882C882D882D882C56
:20036000882D882C882D882D882C882D882D882C882D882D882C882D882D882D882C882D32
:20038000882D882D882C882D882D882D882D882D882C892C882D882D882D882D887F0C7FE7
:2003A0007289289023951E981C9A1A9C189E16A0148D068D128B0B8B128A0E8A1089118976
:2003C0000F8A12890E8913890E8815880D8915890C8816890B8917880B8818840F882D876F
:2003E0002D882D882D882D880A881987088E1687069213880496118803981088029A0F88F8
:20040000019C0E88009E0D92078E0C900C8C0B8E108A0B8D128A0A8C14890A8B1689098A42
:20042000178909891988098919880989198908881B8808881B8808881B8808881B88098726
:200440001B8809871B8809871B8809871B8809881A880A8719890A8719880B8818880B8802
:2004600017890C8816880D8815890E8814890E8912891089108A108B0C8B128C078D14A1C6
:20048000159F179D199B1C971F95238F29894D7F7F1EA015A014A114A114A114A114A1131B
:2004A000A213A213882D882D882C892C882D882D882D882C892C882D882D882D882C890615
:2004C000881C89038E198802921788009615A113A312A411A5108F078E0F8C0D8C0D8B110B
:2004E0008A0D8A138A0C891589108417892C892D882D882D892D882D882D882D882D882D4C
:20050000882D882D882D880D841A88098819880A8918880A8918880B8817890B8916880CF8
:200520008915890D8913890E8A118A0E8B0F8A108B0D8A128D078D12A214A0169E199B1BAD
:20054000981F952290288A4E7F7F34862E872D882C892C892B8A2A8B298C288D288D278ED3
:20056000268F259025902491239222932293218A0088208A01881F8A02881E8B02881E8A14
:2005800003881D8A04881C8A05881B8A06881B8A06881A8A0788198A0888188A0988188AC9
:2005A0000988178A0A88168A0B88158A0C88158A0C88148A0D88138A0E88128A0F88118BA9
:2005C0000F88118A1088108A11880F8A12880E8A13880EAF06AF06AF06AF06AF06AF06AFBD
:2005E00006AF06AF25882D882D882D882D882D882D882D882D882D882D882D882D882D88B3
:200600002D882D887B7F6F89299023941F971D9A1A9C189E16A0158C068C148B0A8B128A7C
:200620000E891289108911881288108912890F8814880F8814880E8914880E881588128426
:2006400015882D882D882C882D882C892B892B892A8B288C2391248F268D288F2592239465
:2006600021952081078C2B8B2C8A2C892D892D892C892D882D892D882D882D882D882D885A
:200680002D880D841A8809881A8809891889098918880B8818880B8916890B8915890D89AC
:2006A00014890D8A12890F8A108A0F8B0D8B118D078D13A214A0169D199B1B991E952291EA
:2006C00028894E7F6F8A279221961D9A1A9C189E16A014A2128E078D118B0C8C0F8A108A09
:2006E0000F89128A0D8914890D8914890D8816890C8816890B8818880B8818880B88188860
:200700000F8418882D882D882D882C892C882C892C892B892C892B892B8A2A8A2A8B298BC5
:20072000298B298B298B298C288C288C288C288C278C288C288C288C288C278D278D278C7A
:20074000288C288C298B298B298A2A8A2B892B8A2B892B892CAA0AAB0AAB0AAB09AC09AC32
:2007600009AC09AC09AC747F78852F862F862E872D882D882C892B8A2A8B298C278E268FA3
:2007800025902491229320951E8D00881D8C02881D8B03881D8A04881D8806881D87078853
:2007A0001D8509881D830B881D810D882D882D882D882D882D882D882D882D882D882D888E
:2007C0002D882D882D882D882D882D882D882D882D882D882D882D882D882D882D882D88C9
:2007E0002D882D882D882D882D882D882D882D882D882D882D882D882D882D882D882D88A9
:200800002D882D887F017F708A289023941F981C9A1A9C189E16A0158C068C148B0A8B12FE
:200820008A0E891289108911881288108912890F8814880E8914880E8816880D8816880D22
:200840008816880C8818880B8818880B8818880B8818880B8818880B8818880A881A880902
:20086000881A8809881A8809881A8809881A8809881A8809881A8809881A8809881A8809E0
:20088000881A8809881A8809881A8809881A8809881A8809881A8809881A8809881A8809C0
:2008A000881A8809881A8809881A880A8818880B8818880B8818880B8818880B8818880B9F
:2008C0008818880C8816880D8816880D8816880D8914890E8814880F89128910881288117D
:2008E000891089118A0E8A128B0A8B148C068C15A0169E189C1A9A1C981F942390288A4D55
:200900007F7F7F7F7F7F7F7F7F7F7F7F7F7F4888138813881388138813881388138813883D
:20092000447F7F7F7F7F7F7F7F36910A910A910A910A910A910A917F7F7F7F7F7F7F077F13
:200940007F7F7F7F7F7F7F7F7F7F7F7F7F7F7F7E7F1F8207840684068407827F18820784BC
:200960000684068407827F20278E0F900D920D9001800881018E01820683108404850E8556
:2009800004850E8504850E8504850E8504850E8504850E8504850E8504850E8504850E8577
:2009A00004850E8504850E8504850E8504850E85048410840482028E028204800292028077
:2009C000069609940C9002811B831985198519851985198519851985198519851985198557
:2009E0001985198519851A830B8E01810B900D920D900F8E28278E0F900D920D90018008B0
:200A000081018E01820683108404850E8504850E8504850E8504850E8504850E8504850E03
:200A20008504850E8504850E8504850E8504850E8504850E8504850E8504850E85048410D5
:200A4000840482028E02820480029202800696068001940782019002810484118304850ED7
:200A60008504850E8504850E8504850E8504850E8504850E8504850E8504850E8504850E96
:200A80008504850E8504850E8504850E8504850E8504850E85058310830781018E01810B86
:200AA000900D920D900F8E28278E0F900D920D9001800C8E01821B84198519851985198560
:200AC0001985198519851985198519851985198519851A841C821E805D811B8319851985F6
:200AE0001985198519851985198519851985198519851985198519851A831C817F24278EFC
:200B00000F900D920D900B81018E0B831A8519851985198519851985198519851985198524
:200B200019851985198519841A82028E0A8002920A96068001940782019002810484118380
:200B400004850E8504850E8504850E8504850E8504850E8504850E8504850E8504850E85B5
:200B600004850E8504850E8504850E8504850E8504850E8504850E85058310830781018E9B
:200B800001810B900D920D900F8E28278E0F900D920D900B81018E0B831A8519851985190A
:200BA0008519851985198519851985198519851985198519841A82028E0A8002920A960992
:200BC000940C9002811B831985198519851985198519851985198519851985198519851943
:200BE0008519851A830B8E01810B900D920D900F8E287F1980088112820683108404850E95
:200C00008504850E8504850E8504850E8504850E8504850E8504850E8504850E8504850EF4
:200C20008504850E8504850E8504850E8504850E85048410840482028E02820480029202EF
:200C400080069609940C9002811B83198519851985198519851985198519851985198519D9
:200C6000851985198519851A831C817F24278E0F900D920D9001800C8E01821B84198519B4
:200C800085198519851985198519851985198519851985198519851A840A8E0282089202AF
:200CA00080069609940C9002811B8319851985198519851985198519851985198519851979
:200CC000851985198519851A830B8E01810B900D920D900F8E28278E0F900D920D90018050
:200CE0000C8E01821B84198519851985198519851985198519851985198519851985198532
:200D00001A840A8E0282089202800696068001940782019009841A85198519851985198588
:200D20001985198519851985198519851985198519851A831C81018E0F900D920D900F8EE4
:200D4000287F19801D821B84198519851985198519851985198519851985198519851985AD
:200D600019851B831D811E805D811B83198519851985198519851985198519851985198553
:200D800019851985198519851A831C817F24278E0F900D920D9001800881018E01820683C9
:200DA000108404850E8504850E8504850E8504850E8504850E8504850E8504850E85048552
:200DC0000E8504850E8504850E8504850E8504850E8504850E850484108404821482048038
:200DE000188024801E8215810484118304850E8504850E8504850E8504850E8504850E85D9
:200E000004850E8504850E8504850E8504850E8504850E8504850E8504850E8504850E85F2
:200E200004850E85058310830781018E01810B900D920D900F8E287F7F7F7B8207840684B7
:200E400006840782107F7F7F7F3F7F7F10860C83028B0983018D0883008F078805860686AA
:200E6000098406850B8405840D8305840D8305840D8404830F8304830F8304830F830483AD
:200E80000F8304830F8304830F8304830F8304830F8304830E8404840D8305840C84058588
:200EA0000B8405860984068805860683008F0783018D0883028B098304860C83188318834F
:200EC0001883188318831883188318831883327F7F7F058607860A830289048A0883008C51
:200EE000028C0783008D008E06870589058406850886088405840A840A8305840A840A832E
:200F000005830B830B8305830B830B8305830B830B8305830B830B8305830B830B83058315
:200F20000B830B8305830B830B8305830B830B8305830B830B8305830B830B8305830B83EF
:200F40000B8305830B830B8305830B830B8305830B830B8305830B830B8305830B830B83CF
:200F600005830B830B8305830B830B8305830B830B837F7F7F7A7F7B880F8D0A9009910735
:200F800085068506840A8405830C8305830C8305830C83168315840E8B09900792068D0153
:200FA000830588078305840B8304840C8304830D8304830D8304830C8404830B850484097C
:200FC000860584068A038F0184048D0284058A058307867F7F357F1A8409840984098409A0
:200FE000847F3D8409840984098409847F7422880F8C0C8F099107860586058509840584D4
:201000000B8404830D8303840D8303830F8302830F8302830F8302830F8302830F83028419
:201020000D8403830D8403840B8504840986048605880594068E0083078B02830A860483E5
:2010400016831583168303830E8303830D8403840C8305830B8405840985068505860890A6
:201060000A8E0C8B11867F7F332485118B0C8F0991078605860684098405840B8404840B25
:201080008404830D8304830D8304830D8304840B8405830B830684098407850585098F0B8A
:2010A0008D0B8F09910785078505840B8404830D8303840D8402830F8302830F8302830F4E
:2010C0008302830F8302830F8302840D8402840D8403840B840486078605930791098F0D2F
:2010E000897F7F3137960396039603961683158315831583158414841484158315841484AD
:20110000158414841583158415831584158415831584158316831584158316831683168345
:2011200015841583168316837F7F532486118B0C8E0A90088605850685098405840B830535
:20114000830C8403840D8303830E83038316831583168304860A83028B0783008E069405A3
:201160008805860486098404850B8403840D8303840D8402830F8302830F8302830F8302B7
:20118000830F8302830F8303830D8403830D8304840B8405840985058605860791098F0C76
:2011A0008C0F887F7F313A9108910891089108821683168316831682178217821683028706
:2011C0000B83008B09910892078605860684098505830B84168316841683168316831683E4
:2011E000168303830E8303830D8403830D8304840B8405840985058605860791098F0B8D06
:201200000F877F7F324583158414851386138612871183008311830083108301830F83026A
:20122000830E8402830E8303830D8304830C8305830B8405830B8306830A830783098407F6
:2012400083098308830883098307830A83079702970297029711831683168316831683164F
:20126000831683168316837F7F4A23870F8D0B900891078605860684098405840B8404848F
:201280000B8404830D8304830D8304830D8315841584148414850D8B0E89108B0E8C148619
:2012A00015841684158402830F8302830F8302830F8302840D8402840C8503840B84048550
:2012C0000985058605860791098F0B8D0F877F7F4D2487108C0B8F0991088505860684099B
:2012E0008406840A8306830B8404840C8304830D8304830D8304830D831683158415841400
:20130000841485138512861187108810880F8810871186128513851484148415831683154E
:20132000960396039603967F7F4529821782168316831584148512870D8C0D8C0D8700837F
:201340000D8403831683168316831683168316831683168316831683168316831683168318
:2013600016831683168316831683168316831683168316837F7F4C23870F8D0B8F099107A8
:201380008605860684098406830B8305840B8404830D8304830D8304830D8303830F830297
:2013A000830F8302830F8302830F8302830F8302830F8302830F8302830F8302830F830275
:2013C000830F8302830F8302830F8302830F8302830F8303830D8304830D8304830D830454
:2013E000840B8405830B8306840984068605860791098F0B8D0F877F7F327F7F7F558409A9
:20140000840984098409847F387F7F458A058A058A058A7F7F7F2B7F7F7F7F3F19118309D7
:20142000810181078103820380008006810181008007837F7F2C01830A820A810A810A81AB
:201440000A810A810A810A810A810A810B810B82088109810A810A810A810A810A810A81DC
:201460000A810A81098207831304810A810A810A810A810A810A810A810A810A810A810A31
:20148000810A810A810A810A810A810A810A810A810A810A810A810A810A81120683078298
:2014A00009810A810A810A810A810A810A810A810A81098108820B810B810A810A810A817D
:2014C0000A810A810A810A810A810A820A830E488901890882078207820782088108820794
:2014E000820782078208890189544D820682008106810181068102810481038104810381EC
:20150000048104810281058102810581028106810081078100810781008108820982098272
:201520000981098206840783144E8106810182048202810481048102810582008206840864
:2015400082088406820082058102810481048102820482018106815B6B810482048100817A
:2015600004820481008104800080048101810281008102810281028100810281028102813D
:20158000008102810281028002800281038100810281008104810081028100810481008124
:2015A000028100810582048206820482068204827F0147810681008106810181048102819D
:2015C0000481028104810381028104810281048102810581008106810081068407820882BB
:2015E000585581068102810681028106810281068102810681028106810281068102810671
:20160000810281068102810582028203830386008104840181620F8104810481048102850F
:20162000008502810481048104810481048104810481048104830382314A8405870282035C
:20164000810281058101810A840786078409810181058101820382028704855631810082A2
:201660000185018204810581058105810581058105810581058105813B5E830181048600FE
:201680008103830184038105820282068102810781028107810281078102820681038105F3
:2016A000820383018404860081068301810C810C810C810C810C811F5B810183068100863A
:2016C0000484018303820581038106820281078102810781028107810281068202820581B1
:2016E00003840183038100860481018306810C810C810C810C81285E840788048302830369
:20170000810681028206820181088101810881018108810182068202810681038302830470
:201720008807846D5B81018405810086048303820382058103810681038106810381068184
:201740000381068103810681038106810381068103810681038106816A7F058101830383CE
:20176000058100850086048302840282038204820481038105810581038105810581038113
:201780000581058103810581058103810581058103810581058103810581058103810581F3
:2017A00005810381058105817F1B07810381038103810381038103810381038103810381C9
:2017C00003810381038103810381038103812B1981098109810981098104820181038202F1
:2017E00081028203810182048100820585058604820181048102820381038103810382029D
:2018000081048102810482530781038103810F810381038103810381038103810381038126
:201820000381038103810381038103810381038101830182080781038103810F81038103D2
:201840008103810381038103810381038103810381038103812B10810C810C810C810C81EF
:201860000C8101840581008604830382038205810381068103810681038106810381068107
:2018800003810681038106810381068103810681038106816A5E83018104860081038301B2
:2018A0008403810582028107810281078102810781028107810282068103810582038301D0
:2018C0008404860081068301810C8102810781028106820382038204890685130A83028483
:2018E00002810581058103860086028105810581058105810581058105810581058105818B
:201900003B58830787048301830381058102820681018B018B01810B820B81058202830143
:2019200083048707836619810C810C810C810C8106830181048600810383018403810582AF
:2019400002820681028107810281078102810781028206810381058203830184048600812F
:20196000068301816A528306870383018203810581018209810A810A810A820581028105C0
:201980008102830182048706835E10810C810C810C810C810C81018306810086048401835D
:2019A0000382058103810682028107810281078102810781028106820282058103840183CF
:2019C00003810086048101836D5785058804810482038105810B8105870389028205810259
:2019E00081068102810681028203830386008302840282610B830385018201820081038133
:201A00000081038100820182018503837F1A7F7F1D8C26108207810081058102810381041E
:201A200081018106817F6F09840384068106810681068106810681068106810681068106CE
:201A40008106810681068106810681068106810681038403841401800B800B810B800B80FD
:201A60000B810B800B800B810B800B800B810B800B800B810B800B800B810B800B800B81B0
:201A80000B800B800B810B800E0B8403840381068106810681068106810681068106810633
:201AA000810681068106810681068106810681068106810684038412118C028C0C820B827D
:201AC0000B820C810C810C820B820B820C810C810C820B820B820B820C8D018D700F820937
:201AE00082008207820281078103820582048105810681038107820182088101810A830B7D
:201B0000830C810D810D810D810D810D810D810D81760F81088101820682028106810481AA
:201B2000048105820282068102810881008109840A820B820A810081088200820781028138
:201B400006810481048204820381068102820682008208826816820682068200810682062B
:201B6000810181068206810182048100810482028104810081048103810481008104810324
:201B8000810481008104810382028102810282048102810281028105810281028102810508
:201BA0008102810281028105820081048100820681008104810081078100810481008107E8
:201BC000810081048100810783068308820682098206827F250E8208820081088101810873
:201BE000810181088102810681038106810381068104810481058104810581048106810290
:201C0000810781028107810281088100810981008109840A820B826E1381098103810981D8
:201C2000038109810381098103810981038109810381098103810981038109810381098134
:201C4000038109810381098103810981038109810382078204820582068908877F020D9BEA
:201C600005810B810B810B810B810B810B810B810B810B810B810B810B810B810B810B81AA
:201C800067148507890482058203810781038107810381078202820D840B860B850C830DB0
:201CA0008201820881028108810281088102830582038A068673128B048C03810882028128
:201CC000098102810981028109810281098102810881038C038B048107820381088103818B
:201CE00008820281098102810981028109810281098102810981771886098A06830483045D
:201D000082088203810A8102820A8201810C8101810C8101810C8101810C8101810C81014C
:201D2000810C810182068002820281058201810382058504830483068C07860182108073BA
:201D4000118A048B038107820281088102810881028108810281088102810782028B038AF6
:201D600004810D810D810D810D810D810D810D817B1886098A068304830482088203810AA2
:201D80008102820A8201810C8101810C8101810C8101810C8101810C8101810C8101820ACB
:201DA0008202810A810382088204830483068A09867F0A1382088103820881038307810391
:201DC0008406810381008106810381008205810381018204810381028104810381028203BD
:201DE0008103810382028103810481028103810482018103810582008103810681008103A3
:201E00008106840381078303810882038108827F16820A82038308830383088303830883B7
:201E200003810081068100810381008106810081038100810681008103810181048101816E
:201E400003810181048101810381018104810181038102810281028103810281028102814E
:201E6000038102810281028103810381008103810381038100810381038103840381038128
:201E8000048204810381048204817F140E810A810A810A810A810A810A810A810A810A81A3
:201EA0000A810A810A810A810A810A810A8A018A5A128108820281078203810682048105A8
:201EC000820581048206810382078102820881018209810083098708830182078203820691
:201EE00081058106810582058106820481078203810882028109827615810A810A810A81E8
:201F00000A810A810A810A810A810A810A810A810181068101810681018106810182048245
:201F2000028804865E07810381038103810381038103810381038103810381038103810374
:201F40008103810381038103812B13810981038109810381098103810981038109810381EB
:201F6000098103810981038D038D03810981038109810381098103810981038109810381DF
:201F800009810381098103810981038109817F1886098A06820583048208810481098202AC
:201FA000820F811081108105870281058702810B8102810B8102820A81038109820382078A
:201FC000830483048405890081078503807F06108B028B02810C810C810C810C810C810C54
:201FE0008A038A03810C810C810C810C810C810C810C8173118C028C02810D810D810D81A0
:202000000D810D810D8B038B03810D810D810D810D810D810D8C028C701389078B058106E3
:202020008304810882038109810381098202810A8102810A8102810A8102810A8102810A2C
:202040008102810A8102810982028109810381088203810683048B05897F031786088A05E8
:202060008304830382088103810A8101820A8101810F810F810F810F810F810B8101820AC0
:2020800081028109820282088104830483058A08867F02128A058C038107820381088103AE
:2020A000810881038108810381088103810782038A058C03810782038109810281098102A7
:2020C0008109810281098102810782038C038A7A15830B830B830A810181098101810981EF
:2020E000018108810381078103810781038106810581058105810589048B03810781038173
:2021000007810281098101810981008209826F21880D82068209820A8107810D8105810F21
:2021200081048006830180038102810481028303810281038104810481018104810481045A
:2021400081018103810581048101810381058104810181038104810481028103810481043C
:2021600081028103810481038104810381028202810581048301840781178117810B8109DF
:202180008205830D876C108504880382038201820581018106810181068109820882088250
:2021A00008820981098209822382098209825F62820C820C830C820D810882078307820819
:2021C000827F155186018613860186636B8208820783078208810D820D820C820C827F0C30
:2021E0002B82038203823482038203820580048104800481172B8203820382348203820349
:2022000082321F850588048203820282058102810781018107810181078101820582028217
:202220000383028A048401810B810181068102810681038104820388058665208307870528
:20224000810381048105810381058103810581048103810685068704820382028107810122
:2022600081078101810781018107810282038203890585651C8B018B0A810A8209820A815D
:202280000A820A810A810B810A820A810B810B810A810B810B816920840688038204810396
:2022A0008106810281068101810B810184048A0283038202820582018107810181078101C1
:2022C000810781028105820282038204880585651D89038903810B810B810B8100840589FB
:2022E00002830382028106820B810B810B8101810781018205820282038203890585652469
:20230000810A82098309830881008107810181068102810681028105810381048104810359
:20232000810581038B018B09810B810B810B81641F8506870482038203810581028205819A
:202340000B810A82078408850B820B810181078101810781018205820282038203890585F7
:20236000651F850589038203820282068101810781018107810B810A8208830784068407DE
:2023800083088209820A810B8B018B6222810B810A82078507850B810B810B810B810B8107
:2023A0000B810B810B810B810B810B810B8166208307870483018303810581028205820191
:2023C0008107810181078101810781018107810181078101810781018107810182058202AC
:2023E0008105810383018304870783660D8105810580058105810580058105810580058110
:2024000005810580058105810580058105810580058105812D7182038203823258850185C4
:20242000687182038203820580048104800481175381078107810487018704810781078181
:20244000671081098109810680018101800289038506830681018104820182048003807FB3
:20246000360781068006810680068105810581068105810581058105810581058105810542
:2024800081058104810581058105800581058005810D0D81058005810580058105810581D1
:2024A0000481058105810581058105810581058105810581068105810581068006810680BB
:2024C0000681070682028202820480038102817415840A860882028207810481078104818E
:2024E00007810382088101820A840A830B8503810382018202810282038201810281058472
:202500000381068303810781048204850388018203850482762D8207810586058006810231
:20252000810481058104810281068104810280078104810181088102810280098601800C40
:2025400082028102820C800186098002810281088101810481078002810481068102810423
:2025600081058104810281068005860581078207807F0C1F850589038203820281078101D2
:2025800081078101810B820B810A8707810B810B810B810A810B860280018B018104836344
:2025A0002E8101810C8002800D8002800C8101810C8002800D800280088D088002800D8075
:2025C00002800D800280088D088002800D8002800C8101810C8002800D8002800C81018181
:2025E0007F0D098001800380018003800180038001800380018003800180038001807F119D
:202600000A8105810581058105810581058105810581058105810581058115810581058145
:202620003A7F0100003048483000000000000000000000000000324C000000000000000072
:202640000000000040202020202020102020202020204000004040404040404040404040AA
:2026600040400000102020202020204020202020202010000000000000FC0408304080FC06
:2026800000000000000000000084848484844C3404087000000000000088885020508888CA
:2026A0000000000000000000008282829292AA4400000000000000000082828282442810FE
:2026C00000000000000000000084848484844C34000000000000004040E040404040403016
:2026E00000000000000000000070888070088870000000000000000000B0C88080808080FA
:20270000000000000000000000344C8484844C34040406000000000000B0C8848484C8B0A3
:2027200080808000000000000038448282824438000000000000000000B0C884848484848F
:20274000000000000000000000ACD29292929292000000000000C040404040404040404021
:202760000000000000008080808890A0C0A090880000000000000010003010101010101009
:2027800010906000000000400040404040404040000000000000808080B0C88484848484AD
:2027A000000000000000000000304C8484844C340408700000003048404040E040404040FD
:2027C000000000000000000000384484F8804438000000000000000404344C8484844C3471
:2027E00000000000000000000038448080804438000000000000008080B0C8848484C8B0E5
:20280000000000000000000000700804748C8C74000000000000404040200000000000005C
:202820000000000000000000000000000000000000FF000000000000000000000000000099
:202840000000000010284400000000000000000000000000000000000000000000000000FC
:202860000000000000E020202020202020202020E0000000000404080810102020404080E0
:202880008000000000E080808080808080808080E00000000000FE0204081010204080FEEE
:2028A0000000000000008282824428101010101000000000000082824428101028448282D6
:2028C0000000000000000000008080808080808880888049005500550022002200000000B1
:2028E00000000000000082828282444428281010000000000000828282828282828244384C
:20290000000000000000FE10101010101010101000000000000038448280601C028244382F
:20292000000000000000F884828284F8908884820000000000003844828282828282443879
:20294000080600000000F88482828284F88080800000000000003844828282828282443867
:20296000000000000000C2C2A2A292928A8A8686000000000000000000C180C180A280A205
:2029800080948094808880888080808080000000000000000000808080808080808080FC03
:2029A000000000000000848890A0C0A0908884820000000000000202020202020282443851
:2029C000000000000000E04040404040404040E000000000000084848484FC848484848497
:2029E0000000000000003C428080809C8282423C000000000000FE808080F88080808080C5
:202A0000000000000000FE808080FC80808080FE000000000000F88482828282828284F83A
:202A20000000000000003C42808080808080423C000000000000F8848284F884828284F81C
:202A40000000000000001010282844447C8282820000000000003C4299A5A5A5A59E403EB5
:202A6000000000000000384482020408101000100000000000000080402010081020408032
:202A800000000000000000000000F800F800000000000000000000081020408040201008D6
:202AA000000000000000000000C0C000C0C04080000000000000000000C0C000C0C0000056
:202AC00000000000000038448282463A020204780000000000003844824438448282443838
:202AE0000000000000007E0202040408081010100000000000003C408080B8C48282443894
:202B0000000000000000FC808080F80402028478000000000000040C14244484FE04040423
:202B200000000000000078840204380402028478000000000000384482020418204080FE5D
:202B40000000000000001030501010101010107C0000000000003844448282828244443881
:202B6000000000000004040808101020204040808000000000000000000000000000C0C0DD
:202B80000000000000000000000000F8000000000000000000000000000000000000C0C0BD
:202BA0004080000000000000002020F82020000000000000000000109254385492100000B9
:202BC00000000000C020100808040404040408081020C0000C102040408080808080404025
:202BE00020100C00004040408000000000000000000000000000205088885020528C8C738C
:202C0000000000000000619192640810264989860000000000003C4240407040704040FE9A
:202C2000000000000000242424FF2424FF2424240000000000A0A0A0000000000000000096
:202C4000000000000000404040404040404000400000000000000000000000000000000034
:202C60000000001D1D1D1D1D1D1D1D1D1D1D1D1D1D1D1D373737373737373737371D1D1D07
:202C80001D1D1D1D1D1D1D1D1D1D1D1D1D1D1D1D1D1D1D1D1D1D1D1D1D1D1D1D1D1D1D1D94
:202CA0001D1D1D1D1D1D1D1D1D1D1D1D1D1D1D1D1D1D1D1D1D1D1D1D1D1D1D1D1D1D1D1D74
:202CC0001D1D1D3F093F093F093F093F093F093F093F093F093F093F093F093F09210900CB
:202CE000093F0906086707C306050648058F049F0313032902390108013F093F093F093F16
:202D0000093F093F093F093F093F093F093F093F093F093F093F093F093F093F093F093F33
:202D2000093F093F093F093F093F093F093F093F093F093F093F093F093F093F093F093F13
:202D4000093F093F093F093F093F093F093F093F093F093F093F093F093F093F093F093FF3
:202D6000093F093F093F093F093F093F093F093F093F093F093F093F093F093F093F093FD3
:202D8000093F090C0C0C0C0C0C0C0C0C0C0C0C0C0C0C0C202020202020202020200C0C0CBE
:202DA0000C0C0C0C0C0C0C0C0C0C0C0C0C0C0C0C0C0C0C0C0C0C0C0C0C0C0C0C0C0C0C0C93
:202DC0000C0C0C0C0C0C0C0C0C0C0C0C0C0C0C0C0C0C0C0C0C0C0C0C0C0C0C0C0C0C0C0C73
:202DE0000C0C0C450E450E450E450E450E450E450E450E450E450E450E450E450E450E37EE
:202E00000E450E8E0D410DD60C6D0CF20B8B0BFE0AA80AF50968095009450E450E450E45BA
:202E20000E450E450E450E450E450E450E450E450E450E450E450E450E450E450E450E4562
:202E40000E450E450E450E450E450E450E450E450E450E450E450E450E450E450E450E4542
:202E60000E450E450E450E450E450E450E450E450E450E450E450E450E450E450E450E4522
:202E80000E450E450E450E450E450E450E450E450E450E450E450E450E450E450E450E4502
:202EA0000E450E0C0C0C0C0C0C0C0C0C0C0C0C0C110F0C1B1B1B1B1B1B1B1B1B1B0F0C0CB4
:202EC0000C0C0C0C0C0C0C0C0C0C0C0C0C0C0C0C0C0C0C0C0C0C0C0C0C0C0C0C0C0C0C0C72
:202EE0000C0C0C0C1B0C0C0C0C0C0C0C0C0C0C0C2A0C0C1D0C0C0C0C0C0C0C0C0C0C0C0719
:202F00000C0C0C17141714171417141714171417141714171417141714171417140914FA47
:202F200013171477132A13D1126A120512A6112B11E4106910EE0FD60F171417141714173C
:202F40001417141714171417141714171417141714171417141714171417141714171417C1
:202F60001417141714171417141714171417141714171417141714171417141714171417A1
:202F80001417141714760F17141714171417141714171417141714171417141714CF0E1775
:202FA0001417144A0E17141714171417141714171417141714171417141714171417141734
:202FC000141714050808130E15110608080C0A070807080E0E0E0E0E0E0E0E0E0E07070E64
:202FE000090E0D1910111212100F1312060D110D151213101311100E120F170F1010090DD1
:20300000090C0D090E0F0D0F0E080F0F06060C06160F0F0F0F080C070E0C120D0D0C0D0D21
:203020000D0F0121260026E225A02573251525D024C324922461244124302421241C2415FF
:2030400024EC23AF238C2361233023FF22D022972274223B220222F521E021CC21C321AF6B
:203060002186210F21D02093205B201920F41FCF1F8F1F4A1F251FF81EB11E8C1E101EB335
:203080001D711D401DF71CB61C811C5E1C181CD51B551B121BDD1AB81A891A561A271A133B
:2030A0001A0E1AF419C9198A19651926190119DC189518561835180818CF17AA17591724AE
:2030C00017F716B81679165C1639161616E115B21558152915EA14CF149C14691436141DA5
:2030E000141C14532C432C332C232C132C032CF32BE32BD32BC32BB32BA32B932B832B73DF
:203100002B632B532B432B332B232B132B032BF32AE32AD32AC32AB32AA32A932A832A7357
:203120002A632A532A432A332A232A132A032AF329E329D329C329B329A329932973296367
:2031400029532943293329232913290329F328E328C328B328A328932883287328632843C8
:2031600028232813280328F327E327D327C327B327A327932783277327632753274327332B
:2031800027232713270327F326E326D326C326B326A326932683267326632653264326331B
:2031A000262326000000000000000000000807E330D931100D0000000000002330C32F1AF8
:2031C00013000000000000032FA32E3024E32D832D302FC32C632C4B490603040908090924
:2031E0000307070806030605070808080808080808080803030606060809080808080808F2
:203200000808040808070A0808080808080808080A080808040704070904070707070706C3
:20322000070704050604080708070806060507080806070705030508060000220025002881
:20324000002B002E003100340002010000050108010B0100002100240027002A002D00309F
:2032600000330001010000040107010A0105050505070508080808020202020A0A08080491
:2032800004040401010101010101010303030303030303040707070C0C0C0C0C0C0C0C0287
:2032A00002020206060606060606060B0B0B0B0B0B0B0B010210202008081020401020403D
:2032C0008002010201080402010102040810204080804020100804020180040201804020F4
:2032E0001008040201080402010102040810204080010204081020408000000A0B02090C76
:203300000D0E0807030401000000000000000000000000000000000000000000000000007B
:2033200000000000001211100000000000000000000000000000000000000000000000005A
:20334000000000003E5B4F5B3E3E6B4F6B3E1C3E7C3E1C183C7E3C181C577D571C1C5E7F99
:203360005E1C00183C1800FFE7C3E7FF0018241800FFE7DBE7FF30483A060E262979292600
:20338000407F050507407F05253F5A3CE73C5A7F3E1C1C08081C1C3E7F14227F22145F5F7F
:2033A000005F5F06097F017F006689956A606060606094A2FFA29408047E040810207E20A4
:2033C0001008082A1C08081C2A08081E101010100C1E0C1E0C30383E3830060E3E0E0600EF
:2033E0000000000000005F00000007000700147F147F14242A7F2A12231308646236495644
:2034000020500008070300001C2241000041221C002A1C7F1C2A08083E08080080703000A3
:203420000808080808000060600020100804023E5149453E00427F40007249494946214115
:20344000494D331814127F1027454545393C4A494931412111090736494949364649492993
:203460001E0000140000004034000000081422411414141414004122140802015909063E9B
:20348000415D594E7C1211127C7F494949363E414141227F4141413E7F494949417F09095B
:2034A00009013E414151737F0808087F00417F41002040413F017F081422417F4040404009
:2034C0007F021C027F7F0408107F3E4141413E7F090909063E4151215E7F09192946264907
:2034E00049493203017F01033F4040403F1F2040201F3F4038403F631408146303047804D6
:20350000036159494D43007F4141410204081020004141417F040201020440404040400006
:203520000307080020545478407F284444383844444428384444287F385454541800087E2D
:20354000090218A4A49C787F0804047800447D40002040403D007F1028440000417F40000C
:203560007C047804787C080404783844444438FC1824241818242418FC7C0804040848547F
:2035800054542404043F44243C4040207C1C2040201C3C4030403C44281028444C90909094
:2035A0007C4464544C4400083641000000770000004136080002010204023C2623263C1E7E
:2035C000A1A161123A4040207A385454555921555579412154547841215554784020545502
:2035E00079400C1E5272123955555559395454545939555454580000457C410002457D425D
:203600000001457C40F0292429F0F0282528F07C545545002054547C547C0A097F49324929
:203620004949323248484832324A4848303A4141217A3A42402078009DA0A07D3944444444
:20364000393D4040403D3C24FF2424487E4943662B2FFC2F2BFF0929F620C0887E090320AF
:20366000545479410000447D413048484A32384040227A007A0A0A727D0D19317D2629298D
:203680002F28262929292630484D4020380808080808080808382F10C8ACBA2F102834FA35
:2036A00000007B000008142A142222142A1408AA005500AAAA55AA55AA000000FF00101027
:2036C00010FF00141414FF001010FF00FF1010F010F0141414FC001414F700FF0000FF001D
:2036E000FF1414F404FC141417101F10101F101F1414141F00101010F0000000001F101019
:2037000010101F10101010F010000000FF101010101010101010FF10000000FF140000FF7A
:2037200000FF00001F10170000FC04F414141710171414F404F40000FF00F714141414147C
:203740001414F700F7141414171410101F101F141414F4141010F010F000001F101F0000DC
:20376000001F14000000FC140000F010F01010FF10FF141414FF141010101F00000000F05A
:2037800010FFFFFFFFFFF0F0F0F0F0FFFFFF0000000000FFFF0F0F0F0F0F38444438447C70
:2037A0002A2A3E147E02020606027E027E0263554941633844443C04407E201E2006027E8C
:2037C000020299A5E7A5991C2A492A1C4C7201724C304A4D4D303048784830BC625A463D89
:2037E0003E494949007E0101017E2A2A2A2A2A44445F444440514A444040444A51400000B2
:20380000FF0103E080FF000008086B6B083612362436060F090F06000018180000001010FD
:20382000003040FF0101001F01011E00191D1712003C3C3C3C0000000000533B11241FBEE9
:20384000CFEFD1E2DEBFCDBF00E00CBF13E0A0E0B2E0E6E4FCE700E00BBF02C007900D92CF
:20386000AA34B107D9F725E0AAE4B3E001C01D92A23DB207E1F71CE1CEE1DCE100E006C0CD
:2038800021970109802FFE010E94153ECD31D10780E00807A9F70E94A6310C94213E0C94C6
:2038A000000085ED8093BC008091BC0084FDFCCF10927305089540910605262F30E0240F83
:2038C000311D21323105DCF4209173052430C9F4FC0180E090E0861758F4309106052191D3
:2038E000DC01AA51BB4FA30FB11D2C930196F3CF80910605680F6093060580E0089581E05F
:20390000089582E00895089508950895E091750580917405E81730F4F0E0EA58FA4F808140
:2039200090E008958FEF9FEF08959091750580917405981750F4E92FF0E0EA58FA4F2081A5
:2039400030E09F5F9093750502C02FEF3FEFC90108958091740590E020917505821B9109EB
:203960000895CF92DF92EF92FF920F931F93CF93DF937C01CB018A0120919805222389F0BE
:20398000EB016B01C40ED51ECC15DD0561F06991D701ED91FC910190F081E02DC701199594
:2039A000F3CF642F88DFC801DF91CF911F910F91FF90EF90DF90CF900895CF93DF931F9264
:2039C000CDB7DEB76983209198052223D1F020919605203240F021E030E0FC013383228357
:2039E00080E090E014C080919705E82FF0E0E35DFA4F998190838F5F80939705809396058E
:203A000004C061E0CE01019656DF81E090E00F90DF91CF910895089580E090E00895DC0142
:203A20001596ED91FC9116976E177F07B8F517968D919C9118974817590780F5A1985F9860
:203A40008AE288B9A298A29A5F9A78B9A298A29A68B9A298A29A78B9A298A29A68B9A2980A
:203A6000A29A5F988BE288B9A298A29A5F9A58B9A298A29A48B9A298A29A58B9A298A29A71
:203A800048B9A298A29A5F988CE288B9A298A29A5F9A28B932B9A298A29AA19A08950F93DE
:203AA0001F932617370728F4962F872FB901292F382F0417150728F4942F852FA801092F1E
:203AC000182FA1985F988AE288B9A298A29A5F9A78B9A298A29A68B9A298A29A38B9A298EA
:203AE000A29A28B9A298A29A5F988BE288B9A298A29A5F9A58B9A298A29A48B9A298A29A21
:203B000018B9A298A29A08B9A298A29A5F988CE288B9A298A29A5F9A1F910F9108951F9274
:203B20000F920FB60F9211240BB60F922F933F934F935F936F937F938F939F93AF93BF9383
:203B4000EF93FF93E0E0F0E01995FF91EF91BF91AF919F918F917F916F915F914F913F9173
:203B60002F910F900BBE0F900FBE0F901F9018951F920F920FB60F9211240BB60F922F93A5
:203B80003F934F935F936F937F938F939F93AF93BF93EF93FF938091B900887F803609F4EB
:203BA0009CC068F5883209F45BC090F4803109F454C038F4882309F4F6C0883009F44DC0E8
:203BC000F5C0883109F44CC0803209F45DC0EEC0803409F468C048F4803309F455C088335F
:203BE00009F0E4C080937105D8C0803509F44FC0883509F45DC0883409F0D8C0D6C08839CB
:203C000009F4C7C0A8F4883709F467C038F4883609F463C0803709F460C0C8C0883809F47E
:203C2000B8C0803909F45FC0803809F0BFC05BC0803B09F486C038F4803A09F466C0883A23
:203C400009F47FC0B3C0803C09F4A7C0883C09F4A4C0883B09F48AC0A9C080916E0510C0A9
:203C60009091700580916F05981770F5E091700581E08E0F80937005F0E0E35BFA4F808151
:203C80008093BB0085EC86C0809371058EC0E091700581E08E0F809370058091BB00F0E0C0
:203CA000E35BFA4F80839091700580916F056EC0E091700581E08E0F809370058091BB00F9
:203CC000F0E0E35BFA4F80838091720581116DC081E080936D0584EA61C083E080937305E0
:203CE00010922805CFCF80912805803208F051C0E091280581E08E0F809328058091BB00B6
:203D0000F0E0E85FFA4F8083BDCF85EC8093BC001092730580912805803230F4E0912805A8
:203D2000F0E0E85FFA4F10826091280570E0E0912905F0912A0588E095E01995109228057A
:203D400035C084E0809373051092070510920605E0912B05F0912C05199580910605811175
:203D600005C081E0809306051092E604E091070581E08E0F80930705F0E0EA51FB4F808183
:203D80008093BB009091070580910605981708F479CF85E88093BC0009C085EC8093BC00D4
:203DA0001092730503C0109271057BDDFF91EF91BF91AF919F918F917F916F915F914F91E6
:203DC0003F912F910F900BBE0F900FBE0F901F9018958F929F92AF92BF92CF92DF92EF924D
:203DE000FF920F931F93CF93DF9362E370E080E090E00E94FF3061E08091C2050E94813068
:203E000062E370E080E090E00E94FF3060E08091C2050E9481306AE070E080E090E00E94F5
:203E2000FF3061E08091C2050E9481306AE070E080E090E00E94FF3081E10E94BD2C64E17A
:203E400070E080E090E00E94FF3080ED0E94BD2C87E00E94B62C82E40E94B62C88E10E9499
:203E6000B62C81ED0E94BD2C80E00E94B62C87E00E94B62C80E10E94B62C82ED0E94BD2CB9
:203E800081E00E94B62C82E00E94B62C80EC0E94BD2C80E10E94B62C8BE30E94B62C80E029
:203EA0000E94B62C82E00E94B62C81E10E94B62C85EC0E94BD2C88E00E94B62C88EC0E94B4
:203EC000BD2C80E00E94B62C82E30E94B62C86E30E94B62C85E40E94B62C86E00E94B62C68
:203EE00086E10E94B62C87E30E94B62C85E70E94B62C87E70E94B62C84E50E94B62C8CE0AE
:203F00000E94B62C80E00E94B62C86E30E94BD2C8AE00E94B62C8AE30E94BD2C85E50E9453
:203F2000B62C8AE20E94BD2C80E00E94B62C80E00E94B62C81E00E94B62C8FE30E94B62C05
:203F40008BE20E94BD2C80E00E94B62C80E00E94B62C81E00E94B62C8FED0E94B62C68E76D
:203F600070E080E090E00E94FF3089E20E94BD2C69E170E080E090E00E94FF3062E370E08A
:203F800080E090E00E94FF3086E30E94BD2CC1E0C093BF0588E20E94B62C80EE91E09093E4
:203FA000AB058093AA0580E491E09093AD058093AC0562E370E080E090E00E94FF3000915A
:203FC000AC051091AD052091AA053091AB05E12CF12C40E050E060E070E085EA95E0B8D294
:203FE00064E670E080E090E00E94FF308FEF9FEF9093B5058093B40580E098EF9093B7050B
:204000008093B605C093BD0582E08093BC051092C7051092C6051092AF051092AE0510925F
:20402000B1051092B0058AE792E00E9412290E94C42981E30E9417298DE190E00E94FC283A
:204040000E9468291092C8030E9421299091740580917505981719F0C093C90348C010922E
:20406000C903812CD8EF9D2E10EEA12EBB24BA9402E0C02E84E0D82ECDE2D0E092E8E92E11
:20408000F12C0EE810E08091C903811130C09092B5058092B405B092B705A092B605C092DA
:2040A000BD05D092BC051092C7051092C605D093AF05C093AE05F092B105E092B0058DEB4C
:2040C00092E00E941229D093AF05C093AE051093B1050093B00585EE92E00E94122960EDC4
:2040E00077E080E090E00E94FF3073DECCCF2AE930E040EE51E068E170E080E090E00E944F
:204100004E2C81E08093BC0580E491E09093AF058093AE0586E890E09093B1058093B005FF
:2041200020E630E040EA50E06CEB70E080E090E00E944E2C12E01093BC0586E190E090932C
:20414000AF058093AE05A4ECEA2EF12CF092B105E092B005CFEFDFEFD093B505C093B4050C
:204160001092B7051092B60588EF92E00E94F42920E630E048E850E06CEB70E08AEA90E0DB
:204180000E944E2C1093BC058CEB90E09093AF058093AE05F092B105E092B005D093B5059F
:2041A000C093B4051092B7051092B6058BE093E00E94122920E430E044EA50E06CEB70E064
:2041C0008CE391E00E944E2C6CE070E080E391E00E94002A6BE070E080E391E00E94002A6C
:2041E0001093BC05B8E8EB2EFF24F394F092AF05E092AE058AE291E09093B1058093B0051F
:20420000D093B505C093B4051092B7051092B6058BE193E00E94F4296CE070E081E191E0AD
:204220000E94002A6BE070E081E191E00E94002A1093BC05F092AF05E092AE058BE091E0DD
:204240009093B1058093B005D093B505C093B4051092B7051092B60582E293E00E94F42943
:2042600080E090E0A0EAB0E480934C0390934D03A0934E03B0934F03109250031092510377
:2042800010925203109253031092E5041092C703C7E2FC2E8091C703863208F03EC00E943A
:2042A000C42981E3C4D766EC89E995E086DB0E9468291092C803C5D7909175058091740517
:2042C000C091C703D0E09817B1F00091C80310E089E995E02ADB9E01220F331FC20FD31FA6
:2042E000CB5ADC4FC00FD11F88838091C8038F5F8093C803E1CFCE01880F991FC80FD91F5F
:20430000CB5ADC4F8981853211F4F092C7038091C7038F5F8093C703BDCF1092C70380918C
:20432000C703863278F50E94C42981E380D766EC89E995E042DBCCD71092C80382D7909164
:20434000750580917405C091C7039817B9F0D0E00091C80310E089E995E0E7DA9E01220F72
:20436000331FC20FD31FCB5ADC4FC00FD11F88838091C8038F5F8093C803E1CFCF5FC09335
:20438000C703CDCF30914B0320E040E0263289F0822F90E0FC01EE0FFF1F8E0F9F1FFC0126
:2043A000EB5AFC4F8281833411F4322F41E02F5FEDCF30934B0390914A0380E0863289F0D2
:2043C000282F30E0F901EE0FFF1F2E0F3F1FF901EB5AFC4F2281213411F4982F41E08F5F69
:2043E000EDCF8093C7034093E50490934A0387E18093540384E08093BC051092AF051092F6
:20440000AE0586E291E09093B1058093B0058FEF9FEF9093B5058093B4051092B7051092BA
:20442000B6058091C903882309F44DC0442309F44AC08CE492E0F6D680914B038093C703D7
:204440008091C70390E020914B0330E0255F3F4F2817390774F0FC01EE0FFF1F8E0F9F1F9A
:20446000FC01EB5AFC4F8281DED68091C7038F5FE5CF81E592E0D6D680914A0390E0FC012C
:20448000EE0FFF1F8E0F9F1FFC01EB5AFC4F8281CAD680914A0390E00196FC01EE0FFF1FF9
:2044A0008E0F9F1FFC01EB5AFC4F8281DF91CF911F910F91FF90EF90DF90CF90BF90AF9087
:2044C0009F908F90B0C680EE9FEF9093B7058093B6059093B5058093B4058CE293E0DF9175
:2044E000CF911F910F91FF90EF90DF90CF90BF90AF909F908F9096C6CF92DF92EF92FF9214
:204500000F931F93CF93DF936C017A018B01C0E0D0E0CE15DF0581F0D8016D918D01D6013B
:20452000ED91FC910190F081E02DC6011995892B11F02196EECF7E01C701DF91CF911F91FC
:204540000F91FF90EF90DF90CF9008950E941D3ECF92DF92EF92FF920F931F93CF93DF9339
:204560006901E801DC011596ED91FC9116976E177F070CF074C017962D913C91189742172D
:2045800053070CF06CC0C114D10409F468C0209709F465C0DB01AC0DBD1DEA17FB071CF46F
:2045A0006F01C61AD70AFA01EC0FFD1F2E173F071CF4E901C41BD50B8A010C0F1D1F015041
:2045C00011099B012C0D3D1D2150310968DAF2B8E8B8CC16DD062CF49C2D8D2D6E01C92F8C
:2045E000D82FB0E1CB16D1048CF196012F703327219708F433C0C6014097A298A29AA2986B
:20460000A29AA298A29AA298A29AA298A29AA298A29AA298A29AA298A29AA298A29AA298EA
:20462000A29AA298A29AA298A29AA298A29AA298A29AA298A29AA298A29A80319105E4F659
:20464000C9010197A8F2A298A29AFBCF219730F0C6010197D8F3A298A29AFBCFA19ADF9131
:20466000CF911F910F91FF90EF90DF90CF9008952F923F924F925F926F927F928F929F9249
:20468000AF92BF92CF92DF92EF92FF920F931F93CF93DF93CDB7DEB72F970FB6F894DEBFAF
:2046A0000FBECDBF6D3009F4F0C46A3019F4F0E2DF2E01C0D62E9F878E87DC0191962D910B
:2046C0003C9192972115310509F02DC457962C91AD2CB12C223051F4F501E754FE4C849107
:2046E00090E00696887FE0E1F0E01BC0B6E02B9FA0011124FA01EB55FE4C85919491F5014F
:20470000B097E80FF91F8491FA01E955FE4CE491213019F090E0F0E004C0E8E0F0E086E0DA
:2047200090E0AE85BF855896CC904C2D50E0E49FD001E59FB00DF49FB00D1124EE85FF858E
:20474000038514856A3039F4A00FB11FB487A387128611869AC4EE85FF8530A13323B1F041
:20476000849FB001859F700D949F700D112481859285860F971F658176818617970730F03F
:20478000A00FB11FB487A3871286118630E0AE85BF851B964D905C901C9719962D903C901A
:2047A0001A975196ED90FC9052971F960D911C9150972130310521F52D2DA201B101CD016E
:2047C0000E944F2EEE85FF8581A192A1009731F4E08D26E0E29FF001112498C39C012C5F15
:2047E0003F4FF901449150E0A416B50608F48CC33196E491F0E0EA15FB0508F0BDC384C3A2
:20480000C5018097BC01660F771F2230310599F4FB01ED51FF4C8590949099868886FC01F6
:20482000E752FE4CE4916E2F70E07B836A8360E1662E712C25C0E6E0E29FD001E39FB00DFA
:204840001124FD01ED55FE4CA590B4906A0D7B1DFB018590949099868886FD01EB55FE4C27
:20486000A590B490FC01EA0DFB1DA4908A2D90E09B838A83FD01E955FE4CE4916E2E712CF9
:20488000D02E912EBE2CAF2C2230310509F02EC2AA81BB814A9FF0014B9FF00D5A9FF00D07
:2048A00011249F01220D331DAE85BF8515968D919C9116972817390708F028C38A819B8101
:2048C0000696FC0123E0F595E7952A95E1F7FD83EC830E151F0521F0F1E0CF1609F477C16D
:2048E0001D861C861B861A862A853B852615370509F4FFC2AE85BF855196ED90FC9052973E
:204900001F968D919C9150978E159F0589F058960C91589710E0EA81FB810E9F90010F9FB3
:20492000300D1E9F300D1124A201B101CD0110DE51011F821E822C813D814E815F81241712
:20494000350709F430C1FA016C857D85E60FF71F88859985E80FF91F9490992009F419C146
:20496000AE85BF8558962C915897213009F067C097FE08C01F962D913C915097A201B501D8
:20498000CD014DD896FE0AC0EE85FF8527853089A201B5016F5F7F4FCF0141D895FE0CC02D
:2049A000AE85BF851F962D913C915097A201B5016E5F7F4FCD0133D894FE0AC0EE85FF8539
:2049C00027853089A201B5016D5F7F4FCF0127D893FE0CC0AE85BF851F962D913C915097B5
:2049E000A201B5016C5F7F4FCD0119D892FE0AC0EE85FF8527853089A201B5016B5F7F4F5F
:204A0000CF010DD891FE0DC0AE85BF851F962D913C915097A201B5016A5F7F4FCD010E9487
:204A20000F1D90FEB6C0EE85FF8527853089A201B501695F7F4FCF010E940F1DAAC030E0E3
:204A4000C50182199309829F6001839FD00C929FD00C1124C20CD31C97FE0BC0AE85BF8503
:204A60001F96ED90FC9050978901A201B601CD016FDD96FE0DC0EE85FF85208D30E0E78413
:204A8000F088B601620F731F8901A201CF0160DD95FE13C0AE85BF8558962C91589730E023
:204AA0001F96ED90FC905097B901660F771F6C0D7D1D8901A201CD014BDD94FE12C0EE857F
:204AC000FF85808D282F30E0E784F088B601F3E08F9F600D711D11248901A2018E859F85AF
:204AE00037DD93FE16C0AE85BF8558968C9158971F96ED90FC905097282F30E0B601B4E073
:204B00008B9F600D711D11248901A2018E859F851FDD92FE12C0EE85FF85808D282F30E00E
:204B2000E784F088B601F5E08F9F600D711D11248901A2018E859F850BDD91FE16C0AE85C4
:204B4000BF8558968C915897282F30E01F96ED90FC905097B601B6E08B9F600D711D112464
:204B60008901A2018E859F85F3DC90FE12C0EE85FF85808D282F30E0E784F088B601F7E0C6
:204B80008F9F600D711D11248901A2018E859F85DFDC2E813F812F5F3F4F3F832E8338E082
:204BA000A30EB11CC8CEAE85BF8558968C91480E511CEA85FB853196FB87EA872C853D8580
:204BC0004C815D81240F351F3D872C878DCEAE85BF8517962D913C911897C2010197860D85
:204BE000971D8217930718F0290146185708830101501109040D151D2C813D8183E0220FAE
:204C0000331F8A95E1F7220D331D21503109A201B1018E859F850E944F1D20E030E040E057
:204C200050E06416750609F463C180E090E0EC81FD81E817F90709F452C0FC01E20FF31F65
:204C400068857985E60FF71FE491E7FF03C092B8D8B802C0A2B8B8B8A298A29AE6FF03C0BC
:204C600092B8D8B802C0A2B8B8B8A298A29AE5FF03C092B8D8B802C0A2B8B8B8A298A29AD5
:204C8000E4FF03C092B8D8B802C0A2B8B8B8A298A29AE3FF03C092B8D8B802C0A2B8B8B887
:204CA000A298A29AE2FF03C092B8D8B802C0A2B8B8B8A298A29AE1FF03C092B8D8B802C0BF
:204CC000A2B8B8B8A298A29AE0FF03C092B8D8B802C0A2B8B8B8A298A29A0196A8CF4F5F5A
:204CE0005F4F8C819D81280F391F9BCFEA81FB81E69DD001E79DB00DF69DB00D1124BD83A1
:204D0000AC83F1E0CF1205C00E151F0509F0B1C018C00E151F05A9F0469D8001479D100D1F
:204D2000569D100D11246A817B81469F9001479F300D569F300D1124A201B1018E859F85BB
:204D400007DCAE85BF8558968C90889CB02D1124BA878A94B370B983612C712CE82DF0E0EC
:204D6000FD87EC872C813D81621673060CF0C0C0E885F98584913196F987E88787FF75C0F3
:204D80008F77CC24C394C80E8820F1F0AE85BF8558962C9130E0C3016A817B810E94DF3DCC
:204DA000829F5001839FB00C929FB00C1124A20CB31C629F7001639FF00C729FF00C112452
:204DC000E40CF51CCE8223C0C3016A817B810E94DF3D5C01A20CB31C7B01F2CFA298A29AA9
:204DE000EE85FF85808D90E0A80EB91E4A815B81849F9001859F300D949F300D1124220D22
:204E0000331DA216B30618F0E80EF91E5101BE81B150BE83BF3F19F46C0C711CA3CF0C85D6
:204E20001D850E0D1F1D2C853D852A0D3B1DA701B5018E859F850E944F1D92B8D8B8882052
:204E400069F28A85843010F489810AC08450A298A29AA298A29AA298A29AA298A29AF2CFEF
:204E6000815008F4BCCFA298FBCF8F5F680E711C79CF820101501109060D171D9101215065
:204E800031096A817B81260F371FA201B1018E859F850E944F1DE885F9858C819D81181688
:204EA000190634F5849187FF04C08F7792B8D8B802C0A2B8B8B88F5FAC81BD81A81BB10909
:204EC000BD83AC83982F943010F483700DC09450A298A29AA298A29AA298A29AA298A29A58
:204EE000F2CF8150A298A29A8111FBCF3196D5CFA19AEE85FF85808D2A813B81829FF0012B
:204F0000839FF00D112402C0E0E0F0E0AE85BF8519968D919C911A97E80FF91F1A96FC937B
:204F2000EE931997B2C06A30B9F4EE85FF8512861186408DF9013696E491AE85BF851B9631
:204F40008D919C911C974E9F800D911D11241C969C938E931B9799C0BDE0DB1609F495C009
:204F6000C9010496FC014491D41608F48EC03196E491ED15C0F489C0F9012491D21AFC01F4
:204F8000329685919491FC0127E0D29EE00DF11D11243496E491AE85BF8558968C91E89F22
:204FA000F0011124B3CFFC018491FD2DF81B8F2FF9013296A590B49047E0849FA00CB11C3E
:204FC0001124F501329684913196E491882309F448C0EE2309F445C0F5013596E491AE8561
:204FE000BF8590969C919097992369F158964C91589790E08E0F911DE7FD9A95489FB001BD
:20500000499F700D112419968D919C911A97860F971F15966D917C911697861797079CF0D6
:205020001A961C921E921997F9013696E4911B968D919C911C974E9F800D911D11241C96B9
:205040009C938E931B97EE85FF85E188F288078510894385548561857285C08C2D2DCF015B
:205060001ED6F5013496E491AE85BF8558962C91589719968D919C911A97E29F800D911D8F
:2050800011241A969C938E93199781E090E02F960FB6F894DEBF0FBECDBFDF91CF911F91CE
:2050A0000F91FF90EF90DF90CF90BF90AF909F908F907F906F905F904F903F902F90089591
:2050C0000F931F93DC011596ED91FC9116976E177F070CF06FC017968D919C911897481700
:2050E00059070CF067C0CB01820F931FE817F9071CF49F01261B370BA1985F988AE288B90F
:20510000A298A29A5F9A78B9A298A29A68B9A298A29AC9010197680F791F78B9A298A29ACA
:2051200068B9A298A29A5F988BE288B9A298A29A5F9A58B9A298A29A48B9A298A29A58B9B5
:20514000A298A29A48B9A298A29A5F988CE288B9A298A29A5F9A08B912B9203131051CF12D
:2051600020513109A298A29AA298A29AA298A29AA298A29AA298A29AA298A29AA298A29A4A
:20518000A298A29AA298A29AA298A29AA298A29AA298A29AA298A29AA298A29AA298A29A5F
:2051A000A298A29ADACF2150310918F0A298A29AFACFA19A1F910F91089590E0FC01ED5408
:2051C000FD4C2491FC01E359FD4C8491882399F090E0880F991FFC01ED5AFD4CA591B4913F
:2051E000FC01E75CFD4C859194918FB7F894EC91E22BEC938FBF0895682F89E995E00C9407
:20520000DD1C009761F0FC0101900020E9F73197AF01481B590BBC0185EA95E06DC980E0A9
:2052200090E00895EECF682F85EA95E021CA91E0909398058093C8051092970510929605B2
:205240000895809173058111FCCF81E080937305809372059FEF909371051092700592E0A5
:2052600090936F0580936E0580916E05826680936E0580916D05813061F410926D05809171
:205280006E058093BB008091BC0083FDF8CF85EC01C085EE8093BC00809173058130E1F337
:2052A00080917005833018F49091700501C093E0EDE4F5E0A6E7B5E080E0891721F0219154
:2052C0002D938F5FFACF1092750580937405089530919605313208F04BC080917305811135
:2052E000FCCF9091C80522E02093730521E0209372052FEF209371051092700530936F0508
:20530000EDE2F5E0ADE4B5E020E0321721F041914D932F5FFACF10926E0520916E05990F7F
:20532000922B90936E0590916D05913061F410926D0590916E059093BB009091BC0093FD7E
:20534000F8CF95EC01C095EE9093BC00909173059230E1F3909171059F3F79F0809171054E
:20536000803241F080917105803331F084E005C081E003C082E001C083E01092970510923C
:205380009605109298050895109275051092740510929705109296051092730581E0809356
:2053A000720510926D0561E084E1ABD661E085E1A8D6E9EBF0E080818E7F808380818D7F54
:2053C000808388E48093B80085E48093BC0083E89CE190932C0580932B0584E89CE19093D0
:2053E0002A05809329050895CF93DF930ADFEC018AE393E006DF8C0F9D1FDF91CF9108956D
:205400002F923F924F925F926F927F928F929F92AF92BF92CF92DF92EF92FF920F931F93FA
:20542000CF93DF938C01EB0181E090E06C01C61AD70A44245524461A570A461A570AAB0111
:20544000400F511F2FEF3FEF63ED71E085EA95E00E940F1DA8014C1B5D0B2FEF3FEF63EDDA
:2054600071E085EA95E00E940F1DBE016D527E4F2FEF3FEFA80185EA95E00E940F1D63EDE7
:2054800071E06C1B7D0B2FEF3FEFA80185EA95E00E940F1DE12CF12C22242394312CEC167F
:2054A000FD060CF073C0D7FC06C0219782E0480E511CC40CD51C8FEFE81AF80A82E0280E69
:2054C000311CC20CD31C47018DE2881A8EEF980A2FEF3FEF5801AC0EBD1EA501B40185EA46
:2054E00095E00E940F1D83ED682E772473946E187F082FEF3FEFA501B30185EA95E00E9488
:205500000F1D2FEF3FEF5801AC1ABD0AA501B40185EA95E00E940F1D2FEF3FEFA501B3017A
:2055200085EA95E00E940F1D48018E0C9F1C2FEF3FEFA4015E018DE2A81A8EEFB80AB501A5
:2055400085EA95E00E940F1D2FEF3FEFA40193ED692E772473946C1A7D0AB30185EA95E04A
:205560000E940F1D48018E189F082FEF3FEFA401B50185EA95E00E940F1D2FEF3FEFA4017D
:20558000B30185EA95E00E940F1D89CFDF91CF911F910F91FF90EF90DF90CF90BF90AF90C3
:2055A0009F908F907F906F905F904F903F902F9008952F923F924F925F926F927F928F92FF
:2055C0009F92AF92BF92CF92DF92EF92FF920F931F93CF93DF937C016B01C0E0D0E0882417
:2055E0008394912C90EF692E77247A9429EFA22EBB24BA9408E010E0842F8470582E842F4B
:205600008270482E842F8870382E4170242E219682E0880E911CA80CB91C5520C1F02FEFE5
:2056200037E0A8014C0D5D1DB7016C0F7D1F85EA95E00E940F1D2FEF37E0A6014C0F5D1FA3
:20564000B8016E0D7F1D85EA95E00E940F1D4420C1F02FEF37E0A601401B510BB7016C0FED
:205660007D1F85EA95E00E940F1D2FEF37E0A6014C1B5D0BB8016E0D7F1D85EA95E00E94DB
:205680000F1D3320C1F02FEF37E0A6014C0F5D1FB701601B710B85EA95E00E940F1D2FEFA8
:2056A00037E0A8014C0D5D1DB7016C1B7D0B85EA95E00E940F1D21100DC0C017D1071CF520
:2056C000B7FCA5CF0150110982E0680E711CA60CB71C9DCF2FEF37E0A6014C1B5D0BB7017F
:2056E000601B710B85EA95E00E940F1D2FEF37E0A601401B510BB7016C1B7D0B85EA95E0C3
:205700000E940F1DDACFDF91CF911F910F91FF90EF90DF90CF90BF90AF909F908F907F902B
:205720006F905F904F903F902F900895E091AA05F091AB058E179F070CF06FC0E091AC0588
:20574000F091AD056E177F070CF067C0DB01A40FB51FEA17FB071CF4AF01461B570BA198C6
:205760005F98EAE2E8B9A298A29A5F9A98B9A298A29A88B9A298A29A98B9A298A29A88B9D0
:20578000A298A29A5F988BE288B9A298A29A5F9A78B9A298A29A68B9A298A29ACA010197DE
:2057A000680F791F78B9A298A29A68B9A298A29A5F988CE288B9A298A29A5F9A28B932B9BB
:2057C000403151051CF140515109A298A29AA298A29AA298A29AA298A29AA298A29AA29882
:2057E000A29AA298A29AA298A29AA298A29AA298A29AA298A29AA298A29AA298A29AA298F9
:20580000A29AA298A29AA298A29ADACF4150510918F0A298A29AFACFA19A08958F929F925B
:20582000AF92BF920F931F93CF93DF93CDB7DEB7A1970FB6F894DEBF0FBECDBF19A24230E9
:2058400008F44AE08E010F5D1F4F842E912CA12CB12CA50194010E94F33DE62FB901CA01F9
:2058600001501109EA3014F4E05D01C0E95CD801EC93232B242B252B61F7C801C2DCA1961D
:205880000FB6F894DEBF0FBECDBFDF91CF911F910F91BF90AF909F908F9008954F925F9256
:2058A0006F927F928F929F92AF92BF92CF92DF92EF92FF920F931F93CF93DF93EC017B017D
:2058C0003A0169014A0180E1881A91085E0188E0A80EB11C0FEF17E09401AB01B50185EA97
:2058E00095E0EEDB27014C0C5D1CA201415051099401B50185EA95E0E3DB80E1C81AD108DA
:2059000088E0E80EF11C2FEF37E0A601B701CE010DDFC60DD71D2FEF37E0A601B701CE01A3
:20592000019704DF41E0B701C50143DE299742E0B701CE013EDE89E0481A510844E0B201AC
:20594000CE0137DE48E0B201C501DF91CF911F910F91FF90EF90DF90CF90BF90AF909F9009
:205960008F907F906F905F904F9023CEA19812B888B9A298A29AA19A0895A1985F9812B8AF
:2059800088B9A298A29A5F9AA19A08952F923F924F925F926F927F928F929F92AF92BF9225
:2059A000CF92DF92EF92FF920F931F93CF93DF9300D01F92CDB7DEB73C016B01BC01685023
:2059C0007109960141E150E083ED91E0AFDE00E010E0EE24E394F12C20EF822E99249A94D6
:2059E00039EFA32EBB24BA9488E090E09C838B830F5F1F4F82E0E80EF11CAE0CBF1C4B80DB
:205A00005C80440C551C9FEF491A590A9601A2011301EB81FC812E1A3F0AB101C8018D5273
:205A20009E4F84DEC301801B910B9A8389839601A701BC018B819C818D529E4F77DE960116
:205A4000A201B10183ED91E0801B910B6FDE9601A70169817A8183ED91E0EB81FC818E1BF5
:205A60009F0B64DE8B819C81081719076CF4B7FCBFCFEB81FC813197FC83EB83F2E08F0E24
:205A8000911CA80CB91CB4CF0F900F900F900F90DF91CF911F910F91FF90EF90DF90CF90D5
:205AA000BF90AF909F908F907F906F905F904F903F902F900895CF92DF92EF92FF92CF93BD
:205AC000DF936C01990FEE08FF08F7FE15C08DE2AADBEC0166277727CB016C197D098E09FE
:205AE0009F094AE09BDE8C0F9D1FDF91CF91FF90EF90DF90CF9008954AE0C701B601DF91A2
:205B0000CF91FF90EF90DF90CF9088CE8F929F92AF92BF92CF92DF92EF92FF920F931F93D7
:205B2000CF93DF936B017C01142F9B01AC010E94DB3D882319F08DE393E027C04601570145
:205B4000E894B7F82FEF3FEF4FE75FE7C501B4010E94DB3D81110DC02FEF3FEF4FE75FE7F6
:205B6000C501B4010E94253C18161CF481E493E00CC02FEF3FEF4FE75FE4C701B6010E94DF
:205B8000743D18167CF485E493E0DF91CF911F910F91FF90EF90DF90CF90BF90AF909F9021
:205BA0008F902FCB2FEF3FEF4FE75FECC701B6010E94253C87FDE7CF20E030E0A901C701C1
:205BC000B6010E94253C87FF08C08DE22CDBEC01F7FAF094F7F8F09402C0C0E0D0E000E080
:205BE00060E070E080E09FE3101741F020E030E040E251E40E94293C0F5FF6CFA7019601FB
:205C00000E94C13B6B017C010E94963C4B015C014AE004DEC80FD91F112399F1C501B401CC
:205C20000E94C23C9B01AC01C701B6010E94C03B6B017C018EE2F7DAC80FD91F20E030E056
:205C400040E251E4C701B6010E94783D4B015C010E94963C6B01E12CF12C4AE0C701B601BB
:205C6000DDDDC80FD91FC701B6010E94C23C9B01AC01C501B4010E94C03B6B017C011150D1
:205C8000E9F6CE01DF91CF911F910F91FF90EF90DF90CF90BF90AF909F908F9008952F9220
:205CA0003F924F925F926F927F928F929F92AF92BF92CF92DF92EF92FF920F931F93CF93B1
:205CC000DF93CDB7DEB76A970FB6F894DEBF0FBECDBFFC01A580B6806A157B050CF0F8C1E5
:205CE000A780B0844A155B050CF0F2C1AC2CB12CFB0136E0C39EE00DF11D11241E161F062A
:205D00000CF0E6C1F50133E0EE0FFF1F3A95E1F7E40FF51F1E161F060CF0DAC1C986FB864E
:205D2000EA8628015C834B8378876F831C01FC0141A152A14115510509F0C4C085E0289FE8
:205D4000A00111245E834D839C2D913009F068C0E016F10609F464C00B811C81085F1F4F05
:205D60009B012B5F3F4F4B815C81C1010E944F1D8D819E81815C9C4CFC017491ED81FE8115
:205D8000E05CFC4C2490FC01329624913196649131968491452D3B8558E091E0E72FE923BC
:205DA00019F048B842B903C0FA85F8B932B9A298A29AE22DE92319F048B842B903C0EA853A
:205DC000E8B932B9A298A29AE22FE92319F048B842B903C0FA85F8B932B9A298A29AE62F37
:205DE000E92319F048B842B903C0EA85E8B932B9A298A29AE82FE92319F048B842B903C075
:205E0000FA85F8B932B9A298A29A990FEA85E8B932B9A298A29A515009F0C0CFA19A58C15B
:205E20002F8138853A832983812C912C35E0831641F0ED81FE81E80DF91DE15CFC4CD49062
:205E400001C0D12C49856B807C8088E0C82E4130A9F50F811885080D191DD0FE06C09201C3
:205E6000A301B801C1010E940F1DD694CA945FEF651A750AC110F1CF8FEF881A980AE98164
:205E8000FA81EA0DFB1DFA83E983F6E08F16910469F61EC12A853B852415350549F07901AC
:205EA00085019501A30169817A81C1010E94A822D694CA946A0C7B1CCC20F1F2D0FEEACFE4
:205EC0007201EECFFA013496E4912E1BFA0132968591949137E0239F800D911D1124FA01CD
:205EE000459154915A8B498BFC01259134913B872A87FC01329654915E87319624912F8782
:205F00003196E491FC0135962491319684913985323050F0422F022E000C550B5E834D83CE
:205F2000A82F082E000CBB0BAA9D3001AB9D700CBA9D700C1124EB81FC816E0E7F1E812C8F
:205F4000912C1982F985CF2ED12C4B815C81480F511D87FD5A955C834B838F819885820F25
:205F6000911D27FD9A959C01FC014D815E81E41BF50BFC8BEB8B5E85852F90E0ED81FE81E9
:205F8000E80FF91FFE8BED8BA901480F591F588F4F8B5F85851608F09BC08D819E819A8F8F
:205FA000898F80E090E0EB81FC81E80DF11DFD87EC87298DFD812F1B3E85231708F054C08F
:205FC0004981411110C02A853B852F5F3F4FE989FA894A855B85E40FF51F5491588B3B8715
:205FE0002A87E0E8E9832889F9812F2311F0019632C0009781F12985213079F46B897C8947
:20600000498D5A8D640F751F681B790B82019C014C855D85C10154D81CC08C9D90018D9D34
:20602000300D9C9D300D1124E98DFA8DE81BF90BEC9DB001ED9D700DFC9D700D11244F8118
:206040005885640F751F72018501A301C1010E94A82280E090E0598156955983E98DFA8D23
:206060003196FA8FE98FA5CF009761F1F985F13069F46F89788D681B790B82019C014B810F
:206080005C81480D591DC1011BD81CC08C9D90018D9D300D9C9D300D11244D895E89481BDB
:2060A000590B4C9DB0014D9D700D5C9D700D11248F819885680F791F72018501A301C10135
:2060C0000E94A8229FEF891A990A6A0C7B1C61CF6A960FB6F894DEBF0FBECDBFDF91CF912C
:2060E0001F910F91FF90EF90DF90CF90BF90AF909F908F907F906F905F904F903F902F902E
:206100000895362F90E0FC01E750FD4C4491FC01ED54FD4C2491FC01E359FD4C949199231C
:2061200009F46CC0442309F455C050E0FA013197E231F10508F04EC08827EE58FF4F8F4F9A
:206140000C94153E809180008F7707C0809180008F7D03C080918000877F809380003AC06A
:2061600084B58F7702C084B58F7D84BD33C08091B0008F7703C08091B0008F7D8093B0008B
:2061800029C0809190008F7707C0809190008F7D03C080919000877F809390001BC0809102
:2061A000A0008F7707C08091A0008F7D03C08091A000877F8093A0000DC0809120018F7783
:2061C00007C0809120018F7D03C080912001877F80932001E92FF0E0EE0FFF1FE75CFD4CFC
:2061E000A591B4919FB7F894311104C08C912095282302C0EC912E2B2C939FBF08958F92AC
:206200009F92AF92BF92CF92DF92EF92FF926B017C012DD04B015C01C114D104E104F104C4
:20622000E9F025D0DC01CB0188199909AA09BB09883E9340A105B10578F321E0C21AD10817
:20624000E108F10888EE880E83E0981EA11CB11CC114D104E104F10421F7DECFFF90EF9056
:20626000DF90CF90BF90AF909F908F9008953FB7F8948091CE059091CF05A091D005B09135
:20628000D10526B5A89B05C02F3F19F00196A11DB11D3FBFBA2FA92F982F8827820F911D37
:2062A000A11DB11DBC01CD0142E0660F771F881F991F4A95D1F708951F920F920FB60F923F
:2062C00011242F933F938F939F93AF93BF938091CA059091CB05A091CC05B091CD05309166
:2062E000C90523E0230F2D3720F40196A11DB11D05C026E8230F0296A11DB11D2093C90556
:206300008093CA059093CB05A093CC05B093CD058091CE059091CF05A091D005B091D10599
:206320000196A11DB11D8093CE059093CF05A093D005B093D105BF91AF919F918F913F918C
:206340002F910F900FBE0F901F901895CF93DF93CDB7DEB760970FB6F894DEBF0FBECDBFEB
:20636000789484B5826084BD84B5816084BD85B5826085BD85B5816085BD80916E0081603F
:2063800080936E0010928100809181008260809381008091810081608093810080918000B9
:2063A0008160809380008091B10084608093B1008091B00081608093B00080919100826016
:2063C0008093910080919100816080939100809190008160809390008091A1008260809326
:2063E000A1008091A10081608093A1008091A00081608093A0008091210182608093210126
:20640000809121018160809321018091200181608093200180917A00846080937A008091DF
:206420007A00826080937A0080917A00816080937A0080917A00806880937A001092C10017
:206440000E94E91EB2E16B2E712C44244A94542C22242A9407E0302E8091C9038111A6C0E6
:206460008091C90381111CC00E94C42981E30E9417298DE190E00E94FC280E946829109283
:20648000C8030E9421299091740580917505981721F021E02093C903E3CF1092C903E0CF11
:2064A0001092C7030091C703063208F045C00E94C42981E30E94172966EC89E995E00E9430
:2064C000DD1C0E9468291092C8030E94212910E07801EE0CFF1CC701800F911FBC016B5A30
:2064E0007C4F7B019091740580917505981781F07091C803798389E995E00E94951CF70116
:206500009981E90FF11D80839F5F9093C803EACFC801880F991F080F191FF801EB5AFC4FC3
:206520008181853219F4E7E2E093C7038091C7038F5F8093C703B6CF1092C703F091C703AD
:20654000F983F63298F50E94C42981E30E94172966EC89E995E00E94DD1C0E94682910928C
:20656000C8030E9421292981022F10E0C801880F991F080F191F0B5A1C4F909174058091B7
:206580007505981771F0F090C80389E995E00E94951CF801EF0DF11D8083F394F092C80312
:2065A000ECCF39813F5F3093C703C8CF0E94C42981E30E9417298DE190E00E94FC280E9489
:2065C00068291092C8030E9421299091740580917505981721F061E06093C9030CC010927E
:2065E000C90360E078EF81E191E0D0D965E570E080E090E004DE0E94C42981E30E9417298B
:206600008DE890E00E94FC280E9468290E9421299091740580917505981789F07091C80397
:20662000798389E995E00E94951C9981E92FF0E0EE51FB4F80839F5F9093C803E9CF0E9450
:20664000C42981E30E9417298EE890E00E94FC280E9468291092C8030E9421299091740535
:2066600080917505981789F0E091C803E98389E995E00E94951C2981E22FF0E0E152FB4F7D
:2066800080832F5F2093C803E9CF0E94C42981E30E94172985E990E00E94FC280E94682987
:2066A0001092C8030E9421299091740580917505981761F03091C803398389E995E00E948B
:2066C000951C69816F5F6093C803EECF0E94C42981E30E9417298CE990E00E94FC280E94B4
:2066E00068291092C8030E9421299091740580917505981789F07091C803798389E995E0B4
:206700000E94951C9981E92FF0E0E452FB4F80839F5F9093C803E9CFE1E0E093DB048091D9
:20672000E30481111092DB048091E40481111092DB048091E00481111092DB048091E10455
:2067400081111092DB048091DD0481111092DB048091DE0481111092DB04F091C903F98352
:20676000FF2309F492C760EE77E081E191E00ED98091DB04882309F48BC760EE77E080E350
:2067800091E004D92981211105C060EE7FEF80E391E0FCD868E270E080E090E030DD0E948D
:2067A000C42981E30E9417298DE190E00E94FC280E9468291092C8030E94212990917405DC
:2067C00080917505981789F03091C803398389E995E00E94951C6981E62FF0E0E852FB4F31
:2067E00080836F5F6093C803E9CF0E94C42981E30E94172984ED90E00E94FC280E946829A3
:206800001092C8030E9421299091740580917505981789F07091C803798389E995E00E9481
:20682000951C9981E92FF0E0EB52FB4F80839F5F9093C803E9CF1092C703D090C703E09170
:206840005403E88BDE1608F052C00E94C42981E30E94172986E990E00E94FC280E946829C3
:206860001092C8030E9421290D2D10E07801EE0CFF1CC701800F911F9C0120573B4F7901E8
:206880009091740580917505981781F03091C803398389E995E00E94951CF7016981E60F5A
:2068A000F11D80836F5F6093C803EACFF801EE0FFF1FE00FF11FE057FB4F4181842F90E009
:2068C00053E0959587955A95E1F79C01220F331F820F931FDC01A55BBB4F11964C93119700
:2068E000828112968C93D394D092C703A6CF1092C703F090C70373E07F1580F10E94C42929
:2069000081E30E94172987ED90E00E94FC280E9468291092C8030E9421290F2D10E0C80106
:20692000880F991F080F191F015C1B4F9091740580917505981771F0E090C80389E995E09B
